{
  "contractName": "Memo",
  "abi": [
    {
      "constant": true,
      "inputs": [],
      "name": "taskCount",
      "outputs": [
        {
          "name": "",
          "type": "uint256"
        }
      ],
      "payable": false,
      "stateMutability": "view",
      "type": "function"
    }
  ],
  "bytecode": "0x608060405260008055348015601357600080fd5b506077806100226000396000f3fe6080604052348015600f57600080fd5b506004361060285760003560e01c8063b6cb58a514602d575b600080fd5b60336045565b60408051918252519081900360200190f35b6000548156fea165627a7a72305820744e8e60f22d6b96af30f4ec0ec44f87b4e45715cc729baaef19e619b7d405ce0029",
  "source": "pragma solidity ^0.5.3;\ncontract Memo{\n\tuint public taskCount=0;\t// State Variable\n\t\t\t\t\t// Written on blockchain and we get getter functions for free\n}",
  "sourcePath": "/home/leo/Desktop/notes-Eth/contracts/Memo.sol",
  "compiler": {
    "name": "solc",
    "version": "0.5.8+commit.23d335f2.Emscripten.clang"
  },
  "schemaVersion": "3.0.10",
  "updatedAt": "2019-06-14T15:47:09.759Z",
  "devdoc": {
    "methods": {}
  },
  "userdoc": {
    "methods": {}
  }
}